:1000000012C024C023C022C021C020C01FC01EC0F7
:100010001DC01CC01BC01AC019C018C017C016C014
:1000200015C014C013C011241FBECFE5D4E0DEBF3D
:10003000CDBF10E0A0E6B0E0EEEBF1E002C005902D
:100040000D92A237B107D9F711D0B7C0D9CFE19936
:10005000FECF9FBB8EBB6DBBE29AE19A0895E199FA
:10006000FECF9FBB8EBBE09A8DB30895CF92DF92F7
:10007000EF92FF920F931F93CF93DF93CDB7DEB72D
:10008000C150D2400FB6F894DEBF0FBECDBF81E0A5
:1000900087BBC09A83E390E073D065D0369A349BD7
:1000A000FECF81E088BBCE0101967C016E019FEFFF
:1000B000C91A9DEFD90A87015DD0F80181938F019C
:1000C0008FE99FE00197F1F700C00000EC15FD05F6
:1000D00099F798B381E0892788BB00E010E0F70129
:1000E00061917F01C801B3DF0F5F1F4F0115F2E07F
:1000F0001F07A9F700E010E0FF24F394C801AFDF69
:10010000AE014F5F5D4FBE017E5F45D08AE03FD0BC
:100110008DE03DD0C050DE4F8881C050D24037D0F6
:10012000CF5FDD4F8881C150D24031D088B38F2559
:1001300088BB0F5F1F4F011582E01807F9F681E0B9
:1001400088BB80E090E0CF5FDD4F0FB6F894DEBF54
:100150000FBECDBFDF91CF911F910F91FF90EF9018
:10016000DF90CF90089586B1876886B987B18066A1
:1001700087B90895369A349BFECF3D9A85B108958C
:1001800090BD89B988E18AB986E880BD08955D9BF4
:10019000FECF8CB90895E82FE295EF70F0E0E05AB9
:1001A000FF4F9081FB0190838F70E82FF0E0E05AC1
:0E01B000FF4F8081FA0180830895F894FFCFFD
:1001BE00303132333435363738394142434445468F
:0201CE0000002F
:00000001FF
