S013000052656164506167654932432E737265635A
S113000012C019C018C017C016C015C014C013C040
S113001012C011C010C00FC00EC00DC00CC00BC068
S11300200AC009C008C011241FBECFE5D4E0DEBF5A
S1130030CDBF24D039C0E4CF11B887E480B984E0BF
S113004086BF089584EA86BF06B607FEFDCF0895ED
S113005083B984E886BF06B607FEFDCF08958111F3
S113006003C084EC86BF02C084E886BF06B607FEE0
S1130070FDCF83B1089584E986BF0895DDDFE2DF13
S113008082EAE6DF80E0E4DF80E0E2DFDBDF83EAD0
S1130090DFDFC0E003C080E0E2DFCF5FCF33D8F31F
S10F00A081E0DDDFE8DFEBCFF894FFCF58
S9030000FC
