:1000000018C0B8C4B7C4B6C4B5C4B4C4B3C4B2C4C9
:10001000B1C4B0C4AFC4AEC4ADC4ACC4ABC4AAC454
:10002000A9C4A8C4A7C4006000B48000B400EC0058
:10003000097E11241FBECFE5D4E0DEBFCDBFE6E2CE
:10004000F0E040E017C0B591A5913591259105915B
:1000500007FD0CC095918591EF01F92FE82F0590D0
:100060000D92A217B307D9F7FE0104C01D92A21783
:10007000B307E1F7E233F40731F70CD045C4F89445
:02008000FFCFB0
:1000820030313233343536373839414243444546CC
:01009200006D
:10009400BF92CF92DF92EF92FF920F931F93CF9371
:1000A400DF93CDB7DEB7AE970FB6F894DEBF0FBEC1
:1000B400CDBF81B38F7B81BB81B38F7781BB81B38C
:1000C400806281BB869958C0879956C0E7D327D4EC
:1000D400F6D3CC24C394D12CBB24BA9437C08699CC
:1000E40038C0879936C000E010E015C0AFD398013E
:1000F4002C593F4F7901F9018083B6D3F7018183ED
:10010400FFE728E331E0F15020403040E1F700C040
:1001140000000E5F1F4F0034110544F3FAD382EA46
:10012400C7D38D2DC5D38C2DC3D300E010E007C0F9
:10013400F801EC59FF4F8081BBD30F5F1F4F003490
:100144001105B4F30DD480E4C80ED11CBA94B110D7
:10015400C6CF92B380E2892782BBDBD382EAA8D3DD
:1001640080E0A6D380E0A4D38B2D8095A1D3F8D3CF
:1001740082B3806282BBA8C0869917C0879B15C0D2
:100184001AD38CD3DDD39BD32CD36B017C013BD30B
:10019400A7019601ABD090E09BBD8ABDEFE0F7E2EA
:1001A4003197F1F700C00000EFCF869B8DC087998F
:1001B4008BC089E1E4EBF0E0DE01119601900D9231
:1001C4008A95E1F783E1EDECF0E0DE015A960190C7
:1001D4000D928A95E1F783E390E078D3A0D310E001
:1001E40009C0E1E0F0E0EC0FFD1FE10FF11D80819B
:1001F400ABD31F5F1931A8F38CD382EA59D380E0C3
:1002040057D380E055D385D383EA52D381E03AD3E0
:10021400D82EA6D3AE01435D5F4FBE01625D7F4F12
:100224008D2DAAD210E009C0EAE1F0E0EC0FFD1F29
:10023400E10FF11D808188D31F5F1331A8F38EA5D0
:1002440083D38DA581D38AE07FD38DE07DD3EE2443
:10025400E394F12C37C05DD382EA2AD38F2D28D3BF
:100264008E2D26D356D383EA23D300E010E011C0A9
:1002740080E008D3AE01435D5F4FBE01625D7F4FF6
:100284007BD28EA561D38DA55FD38CE25DD30F5F46
:100294001F4F0F33110564F381E0F4D2182F60D39C
:1002A400AE01435D5F4FBE01625D7F4F812F64D21B
:1002B4008EA54AD38DA548D38CE246D3F0E4EF0E45
:1002C400F11CDA94D110C7CF80E090E0AE960FB65F
:1002D400F894DEBF0FBECDBFDF91CF911F910F9178
:0C02E400FF90EF90DF90CF90BF90089546
:1002F0004F925F926F927F928F929F92AF92BF9236
:10030000CF92DF92EF92FF9218D36B017C01609342
:10031000AC007093AD008093AE009093AF0020913D
:10032000B0003091B1004091B2005091B30005D3BC
:100330002B013C0160936000709361008093620028
:10034000909363002091A8003091A9004091AA00E9
:100350005091AB00C701B601F1D24B015C01609333
:10036000A8007093A9008093AA009093AB0020E0AE
:1003700030E04AEF53E4F2D218166CF480E090E0DB
:10038000AAEFB3E48093A8009093A900A093AA00D9
:10039000B093AB0015C020E030E04AEF53ECC5014C
:1003A000B401D8D2882364F480E090E0AAEFB3ECE3
:1003B0008093A8009093A900A093AA00B093AB00EB
:1003C0002091E8003091E9004091EA005091EB0063
:1003D000C701B601CDD24B015C012091A80030913C
:1003E000A9004091AA005091AB006091E400709187
:1003F000E5008091E6009091E700BAD29B01AC0144
:10040000C501B4019BD24B015C012091E000309109
:10041000E1004091E2005091E300C301B201A8D293
:100420009B01AC01C501B40189D24B015C0120E004
:1004300030E04FE753E492D218164CF020E030E061
:10044000A901C501B40186D288236CF409C00F2E1E
:10045000812C912CFFE7AF2EF3E4BF2EF02D03C0CB
:10046000812C912C5401C092B000D092B100E09246
:10047000B200F092B300C501B4010ED1862FFF90F7
:10048000EF90DF90CF90BF90AF909F908F907F9034
:080490006F905F904F900895FA
:100498000AC021D228F026D218F0952309F043C2C9
:1004A80060C2112427C244D1A0F3959FD1F3950FC0
:1004B80050E0551F629FF001729FBB27F00DB11DE0
:1004C800639FAA27F00DB11DAA1F649F6627B00D70
:1004D800A11D661F829F2227B00DA11D621F739F59
:1004E800B00DA11D621F839FA00D611D221F749F67
:1004F8003327A00D611D231F849F600D211D822FAE
:10050800762F6A2F11249F5750408AF0E1F08823F4
:100518004AF0EE0FFF1FBB1F661F771F881F915001
:100528005040A9F79E3F510570F0FDC1E3C15F3F00
:10053800ECF3983EDCF3869577956795B795F79534
:10054800E7959F5FC1F7FE2B880F911D96958795BC
:0405580097F9089572
:10055C000DC0BFD130F0C4D120F031F49F3F11F465
:10056C001EF4FDC10EF4E095E7FBDBC1E92FDED0F4
:10057C0080F3BA17620773078407950718F071F4B4
:10058C009EF5B5C10EF4E0950B2EBA2FA02D0B01E4
:10059C00B90190010C01CA01A0011124FF27591BBC
:1005AC0099F0593F50F4503E68F11A16F040A22FC2
:1005BC00232F342F4427585FF3CF46953795279533
:1005CC00A795F0405395C9F77EF41F16BA0B620B32
:1005DC00730B840BBAF09150A1F0FF0FBB1F661F79
:1005EC00771F881FC2F70EC0BA0F621F731F841FBC
:1005FC0048F4879577956795B795F7959E3F08F0E2
:10060C00B3CF9395880F08F09927EE0F97958795A0
:02061C0008953F
:10061E00E89409C097FB3EF490958095709561958E
:10062E007F4F8F4F9F4F9923A9F0F92F96E9BB2744
:10063E009395F695879577956795B795F111F8CFC0
:10064E00FAF4BB0F11F460FF1BC06F5F7F4F8F4F2B
:10065E009F4F16C0882311F096E911C0772321F021
:10066E009EE8872F762F05C0662371F096E8862FB9
:10067E0070E060E02AF09A95660F771F881FDAF710
:0A068E00880F9695879597F9089557
:1006980057D088F09F5790F0B92F9927B751A0F0FD
:1006A800D1F0660F771F881F991F1AF0BA95C9F7FE
:1006B80012C0B13081F01DD1B1E008951AC1672F81
:1006C800782F8827B85F39F0B93FCCF386957795AE
:1006D8006795B395D9F73EF4909580957095619597
:0806E8007F4F8F4F9F4F0895D3
:1006F000990F0008550FAA0BE0E8FEEF1616170633
:10070000E807F907C0F012161306E407F50798F09A
:10071000621B730B840B950B39F40A2661F0232BB3
:10072000242B252B21F408950A2609F4A140A6952F
:080730008FEF811D811D08956A
:1007380057FD9058440F551F59F05F3F71F047958A
:10074800880F97FB991F61F09F3F79F0879508956F
:10075800121613061406551FF2CF4695F1DF08C08E
:10076800161617061806991FF1CF869571056105AB
:040778000894089544
:10077C00CF93DF93EA01282F22952F7030E040E0D1
:10078C002E573F4F4F4FF901949147FD9081FB013C
:10079C0090838F7090E0A0E08E579F4FAF4FFC017D
:0E07AC008491A7FD80818883DF91CF9108950D
:1007BA0087B3866087BB81E08FBD8FB580688FBDA8
:1007CA008EB583608EBD8FEF90E09BBD8ABD87E8B2
:0C07DA0093E10197F1F700C000000895C2
:1007E60087B18C7F816087B986B1806486B9349B76
:1007F600FECF87B1806287B965B170E080E090E096
:040806000BDF089567
:10080A0087B18C7F826087B986B1806486B9349B50
:10081A00FECF87B1806287B965B170E080E090E071
:04082A00F9DE089556
:10082E00092E0394000C11F4882352F0BB0F40F4F0
:10083E00BF2B11F460FF04C06F5F7F4F8F4F9F4F30
:02084E0008950B
:1008500087B18C7F816087B986B1806486B9349B0B
:0C086000FECF87B1806287B985B1089592
:10086C0087B18C7F826087B986B1806486B9349BEE
:0C087C00FECF87B1806287B985B1089576
:10088800811103C084EC86BF02C084E886BF06B627
:0808980007FEFDCF83B10895B6
:1008A00086B1876886B987B1806687B987B1837F4B
:0408B00087B9089567
:0E08B40083B984E886BF06B607FEFDCF08951F
:0E08C20081B3806281BB82B3806282BB0895E5
:0E08D00090BD89B988E18AB986E880BD089597
:0E08DE0000240A941616170618060906089537
:0E08EC0000240A941216130614060506089539
:0E08FA00E894BB2766277727CB0197F908956E
:0E090800EC0136D034D0CE0134D0CE0133D045
:0C09160084EA86BF06B607FEFDCF0895F8
:0C09220011B887E480B984E086BF089516
:0C092E0097F99F6780E870E060E0089592
:0A093A005058BB27AA270DDE75CF29
:0809440088B3846088BB0895AC
:08094C005D9BFECF8CB90895FC
:08095400CDDE08F481E00895F6
:08095C00C9DE08F48FEF0895D5
:0609640084E986BF08953E
:06096A009FEF80EC0895F0
:0409700093DD5DCFE7
:0209740045CB71
:020976000895E2
:020978000895E0
:02097A000895DE
:02097C0080DB1E
:10097E000A0D53656E64696E6720454550524F4DA2
:10098E002076616C7565730A0D506167657320740E
:0C099E006F2062652072656164203D20BE
:0409AA00CDCCCC3DA7
:0409AE000000003F06
:0409B2000000803F82
:00000001FF
