:1000000012C061C060C05FC05EC05DC05CC05BC04C
:100010005AC059C058C057C056C055C054C053C02C
:1000200052C051C050C011241FBECFE5D4E0DEBF86
:0A003000CDBF03D041C0F894FFCF0C
:10003A0081B38F7B81BB81B38F7781BB81B38062B0
:10004A0081BB869910C087990EC092B380E2892736
:10005A0082BB2FE788E391E0215080409040E1F78E
:10006A0000C00000EECF869910C0879B0EC092B3E5
:10007A0080E2892782BB2FEF84E39CE021508040F5
:10008A009040E1F700C00000DCCF869BDACF879969
:10009A00D8CF92B380E2892782BB2FEF89E698E115
:0E00AA00215080409040E1F700C00000CACF16
:0E00B800EC0107D005D0CE0105D0CE0104D05A
:0200C6009CCFCD
:0200C800089599
:0200CA00089597
:0200CC00089595
:0200CE00B3DF9E
:00000001FF
