S018000052656164506167654932435F554152542E73726563BA
S113000012C024C023C022C021C020C01FC01EC0F3
S11300101DC01CC01BC01AC019C018C017C016C010
S113002015C014C013C011241FBECFE5D4E0DEBF39
S1130030CDBF10E0A0E6B0E0E8E7F1E002C0059033
S11300400D92A237B107D9F724D094C0D9CF11B8F3
S113005087E480B984E086BF089584EA86BF06B643
S113006007FEFDCF089583B984E886BF06B607FE70
S1130070FDCF0895811103C084EC86BF02C084E8DB
S113008086BF06B607FEFDCF83B1089584E986BF17
S11300900895CF93DF93CDB7DEB7C254D1090FB61D
S11300A0F894DEBF0FBECDBF83E390E046D0CFDF30
S11300B0D4DF82EAD8DF80E0D6DF80E0D4DFCDDF92
S11300C083EAD1DF00E00CC0E02EF12C80E0D2DF27
S11300D0E1E0F0E0EC0FFD1FEE0DFF1D80830F5FEC
S11300E00F3390F310E081E0C5DFE1E0F0E0EC0FC6
S11300F0FD1FE00FF11F8083C9DF10E01BC0E1E0AA
S1130100F0E0EC0FFD1FE10FF11DAE014E5B5F4F00
S1130110BE016F5B7F4F80811BD022968FAD2297EB
S113012013D023968FAD23970FD08CE20DD080E2AD
S11301300BD01F5F103418F3E0CF90BD89B988E16C
S11301408AB986E880BD08955D9BFECF8CB9089579
S1130150E82FE295EF70F0E0E05AFF4F9081FB0149
S113016090838F70E82FF0E0E05AFF4F8081FA010E
S10B017080830895F894FFCF89
S113017830313233343536373839414243444546D1
S1050188000071
S9030000FC
