S019000052656164427974654932437374617475732E7372656399
S113000012C019C018C017C016C015C014C013C040
S113001012C011C010C00FC00EC00DC00CC00BC068
S11300200AC009C008C011241FBECFE5D4E0DEBF5A
S1130030CDBF4CD05CC0E4CF11B887E480B984E074
S113004086BF089584EA86BF06B607FEFDCF0895ED
S113005083B984E886BF06B607FEFDCF08958111F3
S113006003C084EC86BF02C084E886BF06B607FEE0
S1130070FDCF83B1089581B1887F089584E986BF57
S11300800895CF93C82FDEDFF6DF8830E9F782EAE0
S1130090DFDFF1DF8831E9F780E0DADFECDF883297
S11300A0E9F78C2FD5DFE7DF8832E9F7CBDFE3DF31
S11300B08031E9F783EACCDFDEDF8034E9F781E0E1
S11300C0CEDFC82FDBDF8C2FCF91089587B38160FB
S11300D087BB81E088BBB0DF80E090E0D2DF8B3A61
S11300E019F488B38E7F88BB80E090E00895F8947B
S10500F0FFCF3C
S9030000FC
