:1000000012C019C018C017C016C015C014C013C044
:1000100012C011C010C00FC00EC00DC00CC00BC06C
:100020000AC009C008C011241FBECFE5D4E0DEBF5E
:10003000CDBF18D03DC0E4CF83B984E886BF06B6F3
:1000400007FEFDCF089584EA86BF06B607FEFDCF02
:10005000089584E986BF089511B887E480B984E0E3
:1000600086BF089587B3816087BBF6DFECDF82EA45
:10007000E3DF80E0E1DF81E0DFDF8BEADDDFE9DF86
:1000800098B381E0892788BB2FEF80E792E0215069
:1000900080409040E1F700C00000D5DF82EACCDF6D
:1000A00080E0CADF81E0C8DF8BEAC6DFD2DFE8CFBD
:0400B000F894FFCFF2
:00000001FF
