S013000052656164427974654932432E7372656343
S113000012C019C018C017C016C015C014C013C040
S113001012C011C010C00FC00EC00DC00CC00BC068
S11300200AC009C008C011241FBECFE5D4E0DEBF5A
S1130030CDBF24D03DC0E4CF11B887E480B984E0BB
S113004086BF089584EA86BF06B607FEFDCF0895ED
S113005083B984E886BF06B607FEFDCF08958111F3
S113006003C084EC86BF02C084E886BF06B607FEE0
S1130070FDCF83B1089584E986BF089587B3816075
S113008087BB81E088BBD8DFDDDF82EAE1DF80E087
S1130090DFDF81E0DDDFD6DF83EADADF81E0DFDF87
S11300A0C82FE9DFCB3A81F788B38E7F88BBECCFCA
S10700B0F894FFCFEE
S9030000FC
