:1000000012C02CC02BC02AC029C028C027C026C0BF
:1000100025C024C023C022C021C020C01FC01EC0D4
:100020001DC01CC01BC011241FBECFE5D4E0DEBF25
:10003000CDBF10E0A0E6B0E0E0ECF1E002C005903A
:100040000D92A237B107D9F720E0A2E7B0E001C0D6
:100050001D92A23BB207E1F766D0B0C0D1CF11B874
:1000600087E480B984E086BF089584EA86BF06B637
:1000700007FEFDCF089583B984E886BF06B607FE64
:10008000FDCF0895811103C084EC86BF02C084E8CF
:1000900086BF06B607FEFDCF83B1089581B1887F84
:1000A000089584E986BF08951F93CF93DF93C82FE7
:1000B000DCDFF4DF8830E9F782EADDDFEFDF88316B
:1000C000E9F780E0D8DFEADF8832E9F78C2FD3DF69
:1000D000E5DF8832E9F7C9DFE1DF8031E9F783EA5C
:1000E000CADFDCDF8034E9F710E00BC0C12FD0E0BD
:1000F00080E0C8DFCE58DF4F8883D0DF8035E9F756
:100100001F5F1F3398F3C12FD0E081E0BBDFCE58D3
:10011000DF4F8883C3DF8835E9F7C3DF80E0DF91F5
:10012000CF911F9108951F93CF93DF9300D0CDB748
:10013000DEB783E390E025D092DF80E090E0B4DF8B
:1001400010E015C0E12FF0E0EE58FF4FAE014E5F1A
:100150005F4FBE016F5F7F4F80811ED0898118D0B5
:100160008A8116D08AE014D08DE012D01F5F10343F
:1001700048F380E090E00F900F90DF91CF911F91B6
:10018000089590BD89B988E18AB986E880BD08954F
:100190005D9BFECF8CB90895E82FE295EF70F0E0FB
:1001A000E05AFF4F9081FB0190838F70E82FF0E0C1
:1001B000E05AFF4F8081FA0180830895F894FFCFC1
:1001C000303132333435363738394142434445468D
:0201D00000002D
:00000001FF
